:020000040800F2
:100000000080012055080008150700081B0700089C
:1000100021070008270700082D070008000000003E
:10002000000000000000000000000000330700088E
:100030003F070008000000004B07000857070008B2
:10004000A5080008A5080008A5080008A5080008DC
:10005000A5080008A5080008A5080008A5080008CC
:10006000A5080008A5080008A5080008A5080008BC
:10007000A5080008A5080008A5080008A5080008AC
:10008000A5080008A5080008A50800080000000051
:10009000000000000000000000000000A5080008AB
:1000A000A5080008A5080008A5080008A50800087C
:1000B000A5080008A5080008A5080008A50800086C
:1000C000A5080008A5080008A5080008A50800085C
:1000D000A5080008A5080008A50800080000000001
:1000E000A5080008A5080008A508000800000000F1
:1000F000000000000000000000000000A50800084B
:1001000000000000A5080008A5080008A5080008D0
:1001100000000000000000000000000000000000DF
:10012000A5080008A5080008A5080008A5080008FB
:10013000A50800080000000000000000000000000A
:10014000000000000000000000000000A5080008FA
:10015000A5080008A5080008A5080008A5080008CB
:10016000A5080008A5080008000000000000000025
:10017000000000000000000000000000000000007F
:1001800000000000A50800080000000000000000BA
:04019000A5080008B6
:1001940010B5054C237833B9044B13B10448AFF3BD
:1001A40000800123237010BD0C000020000000001B
:1001B400201E000808B5034B1BB103490348AFF3E5
:1001C400008008BD0000000010000020201E000870
:1001D40053B94AB9002908BF00281CBF4FF0FF31AA
:1001E4004FF0FF3000F074B9ADF1080C6DE904CEA6
:1001F40000F006F8DDF804E0DDE9022304B07047FE
:100204002DE9F047089E0D4604468846002B4DD143
:100214008A42944668D9B2FA82F252B101FA02F3E0
:10022400C2F1200120FA01F10CFA02FC41EA0308B0
:1002340094404FEA1C45210CB8FBF5FE1FFA8CF7DD
:1002440005FB1E8341EA03430EFB07F199420BD9D8
:100254001CEB03030EF1FF3080F01E81994240F243
:100264001B81AEF1020E63445B1AA4B2B3FBF5F03A
:1002740005FB103344EA034400FB07F7A7420AD9FD
:100284001CEB040400F1FF3380F00881A74240F224
:10029400058164440238E41B40EA0E4000211EB18B
:1002A400D4400023C6E90043BDE8F0878B4208D957
:1002B400002E00F0EE800021C6E900050846BDE8E6
:1002C400F087B3FA83F100294AD1AB4202D38242C8
:1002D40000F2F980841A65EB030301209846002E8E
:1002E400E2D0C6E90048DFE702B9FFDEB2FA82F2E3
:1002F400002A40F09180A1EB0C054FEA1C471FFA3D
:100304008CFE0121B5FBF7F307FB1350250C45EADE
:1003140000450EFB03F0A84208D91CEB050503F1C8
:10032400FF3802D2A84200F2CB8043462D1AA4B271
:10033400B5FBF7F007FB105544EA05440EFB00FE3D
:10034400A64508D91CEB040400F1FF3502D2A645EA
:1003540000F2BB802846A4EB0E0440EA03409EE76B
:10036400C1F120078B4022FA07FC4CEA030C20FA67
:1003740007F405FA01F31C43FD404FEA1C4900FA57
:1003840001F3B5FBF9F8200C1FFA8CFE09FB185594
:1003940040EA054508FB0EF0A84202FA01F20BD927
:1003A4001CEB050508F1FF3A80F08880A84240F272
:1003B4008580A8F1020865442D1AA4B2B5FBF9F0B2
:1003C40009FB105544EA054500FB0EFEAE4508D96D
:1003D4001CEB050500F1FF346CD2AE456AD9023836
:1003E400654440EA0840A0FB0294A5EB0E05A54233
:1003F400C846A64656D353D05EB1B3EB080265EBAC
:100404000E0505FA07F722FA01F3CD401F43C6E9AA
:1004140000750021BDE8F087C2F1200320FA03F142
:100424000CFA02FC25FA03F395400D434FEA1C47EE
:100434001FFA8CFEB3FBF7F107FB11302B0C43EAD8
:10044400004301FB0EF0984204FA02F408D91CEBB5
:10045400030301F1FF382FD298422DD902396344A6
:100464001B1AADB2B3FBF7F007FB103345EA0345A3
:1004740000FB0EF3AB4208D91CEB050500F1FF3875
:1004840016D2AB4214D902386544ED1A40EA014150
:1004940038E73146304607E78646E5E61846FAE689
:1004A4004B45A9D2B9EB020864EB0C0E0138A3E763
:1004B4004046EAE7204694E74146D1E7D0467BE749
:1004C400023B654432E7084609E76444023842E7E0
:1004D400704700BF80B58AB000AF07F11403002253
:1004E4001A605A609A60DA601A6100233B612D4BEE
:1004F4001B6B2C4A43F0040313632A4B1B6B03F05E
:1005040004033B613B690023FB60264B1B6B254ABC
:1005140043F080031363234B1B6B03F08003FB60E6
:10052400FB680023BB601F4B1B6B1E4A43F0010397
:1005340013631C4B1B6B03F00103BB60BB680023FC
:100544007B60184B1B6B174A43F002031363154B74
:100554001B6B03F002037B607B680022202112489E
:1005640000F006FC4FF400537B614FF40413BB61AD
:100574000023FB6107F1140319460C4800F076FAD6
:1005840020237B610123BB610023FB6100233B62C9
:1005940007F114031946044800F068FA00BF28372D
:1005A400BD4680BD00380240000002400008024001
:1005B40080B500AF01F074FB00F010F8FFF78AFF7C
:1005C40000F0D4F84FF47A7001F0D8FB20210248EF
:1005D40000F0E6FBF6E700BF0000024080B594B0EF
:1005E40000AF07F1200330220021184601F00EFC71
:1005F40007F10C0300221A605A609A60DA601A61EB
:100604000023BB60294B1B6C284A43F080531364BE
:10061400264B1B6C03F08053BB60BB6800237B60DC
:10062400234B1B6823F44043214A43F400431360E3
:100634001F4B1B6803F440437B607B6802233B62CF
:100644000123FB6210233B630223BB630023FB6390
:1006540010233B644FF4A8737B640423BB64072317
:10066400FB6407F12003184600F0B4FB0346002B9B
:1006740001D000F01FF80F23FB6002233B6100232D
:100684007B614FF48053BB610023FB6107F10C03D2
:100694000221184600F016FE0346002B01D000F09C
:1006A40009F800BF5037BD4680BD00BF0038024086
:1006B4000070004080B400AF72B600BFFEE70000D7
:1006C40080B582B000AF00237B60104B5B6C0F4A97
:1006D40043F4804353640D4B5B6C03F480437B60B1
:1006E4007B6800233B60094B1B6C084A43F0805332
:1006F4001364064B1B6C03F080533B603B6807207C
:1007040000F080F900BF0837BD4680BD00380240C4
:1007140080B400AFFEE780B400AFFEE780B400AF62
:10072400FEE780B400AFFEE780B400AFFEE780B41C
:1007340000AF00BFBD4680BC704780B400AF00BFAF
:10074400BD4680BC704780B400AF00BFBD4680BCCE
:10075400704780B500AF01F0F5FA00BF80BD80B4EA
:1007640000AF00BFBD4680BC7047000080B500AF3D
:10077400114B124A1A60104B4FF4E1325A600E4B7F
:1007840000229A600C4B0022DA600B4B00221A61A3
:10079400094B0C225A61084B00229A61064B002235
:1007A400DA61054800F0B2FF0346002B01D0FFF7E1
:1007B40081FF00BF80BD00BF28000020004400402E
:1007C40080B58AB000AF786007F1140300221A6084
:1007D4005A609A60DA601A617B681B68194A93420E
:1007E4002BD100233B61184B1B6C174A43F4003395
:1007F4001364154B1B6C03F400333B613B6900230A
:10080400FB60114B1B6B104A43F0010313630E4B47
:100814001B6B03F00103FB60FB680C237B61022369
:10082400BB610023FB6100233B6207237B6207F16A
:1008340014031946054800F019F900BF2837BD46CE
:1008440080BD00BF00440040003802400000024068
:10085400DFF834D00D480E490E4A002302E0D45884
:10086400C4500433C4188C42F9D30B4A0B4C0023F4
:1008740001E013600432A242FBD3FFF770FF01F0E2
:10088400A1FAFFF795FE70470080012000000020C8
:100894000C000020601E00080C00002070000020E6
:1008A400FEE7000080B485B000AF78607B6803F099
:1008B4000703FB600C4BDB68BB60BA684FF6FF03B1
:1008C4001340BB60FB681A02BB68134343F0BF6369
:1008D40043F40033BB60044ABB68D36000BF1437E1
:1008E400BD4680BC704700BF00ED00E080B400AF9F
:1008F400044BDB681B0A03F007031846BD4680BCA3
:10090400704700BF00ED00E080B483B000AF034641
:100914003960FB7197F90730002B0ADB3B68DAB2C8
:100924000C4997F907301201D2B20B4483F8002323
:100934000AE03B68DAB20849FB7903F00F03043B91
:100944001201D2B20B441A7600BF0C37BD4680BCEC
:10095400704700BF00E100E000ED00E080B489B022
:1009640000AFF860B9607A60FB6803F00703FB61CD
:10097400FB69C3F10703042B28BF0423BB61FB6994
:100984000433062B02D9FB69033B00E000237B619F
:100994004FF0FF32BB6902FA03F3DA43BB681A4033
:1009A4007B699A404FF0FF317B6901FA03F3D94325
:1009B4007B680B40134318462437BD4680BC704700
:1009C40080B582B000AF78607B68013BB3F1807F73
:1009D40001D301230FE00A4A7B68013B53600F21D6
:1009E4004FF0FF30FFF790FF054B00229A60044B55
:1009F40007221A60002318460837BD4680BD00BF91
:100A040010E000E080B582B000AF78607868FFF74E
:100A140049FF00BF0837BD4680BD80B586B000AF32
:100A24000346B9607A60FB7300237B61FFF75EFFC6
:100A340078617A68B9687869FFF790FF024697F998
:100A44000F3011461846FFF75FFF00BF1837BD4649
:100A540080BD80B582B000AF78607868FFF7B0FFE2
:100A6400034618460837BD4680BD000080B489B0EF
:100A740000AF7860396000237B6100233B61002371
:100A8400BB610023FB6159E10122FB6902FA03F314
:100A94007B613B681B687A6913403B613A697B69F7
:100AA4009A4240F048813B685B6803F00303012BE2
:100AB40005D03B685B6803F00303022B30D17B68ED
:100AC4009B68BB61FB695B00032202FA03F3DB430F
:100AD400BA691340BB613B68DA68FB695B0002FAE0
:100AE40003F3BA691343BB617B68BA699A607B6894
:100AF4005B68BB610122FB6902FA03F3DB43BA6959
:100B04001340BB613B685B681B0903F00102FB698E
:100B140002FA03F3BA691343BB617B68BA695A608A
:100B24003B685B6803F00303032B17D07B68DB6827
:100B3400BB61FB695B00032202FA03F3DB43BA697E
:100B44001340BB613B689A68FB695B0002FA03F3DC
:100B5400BA691343BB617B68BA69DA603B685B6856
:100B640003F00303022B23D1FB69DA087B68083204
:100B740053F82230BB61FB6903F007039B000F228B
:100B840002FA03F3DB43BA691340BB613B681A6999
:100B9400FB6903F007039B0002FA03F3BA691343EA
:100BA400BB61FB69DA087B680832B96943F8221033
:100BB4007B681B68BB61FB695B00032202FA03F3D9
:100BC400DB43BA691340BB613B685B6803F0030213
:100BD400FB695B0002FA03F3BA691343BB617B68E8
:100BE400BA691A603B685B6803F44033002B00F079
:100BF400A2800023FB60564B5B6C554A43F4804350
:100C04005364534B5B6C03F48043FB60FB68514AB1
:100C1400FB699B08023352F82330BB61FB6903F084
:100C240003039B000F2202FA03F3DB43BA69134068
:100C3400BB617B68484A934219D07B68474A934218
:100C440013D07B68464A93420DD07B68454A934251
:100C540007D07B68444A934201D1042308E0072368
:100C640006E0032304E0022302E0012300E0002362
:100C7400FA6902F0030292009340BA691343BB611C
:100C84003449FB699B080233BA6941F82320374B86
:100C94009B68BB613B69DB43BA691340BB613B683A
:100CA4005B6803F48013002B03D0BA693B691343D8
:100CB400BB612E4ABB6993602C4BDB68BB613B690B
:100CC400DB43BA691340BB613B685B6803F4001300
:100CD400002B03D0BA693B691343BB61234ABB6948
:100CE400D360224B5B68BB613B69DB43BA69134049
:100CF400BB613B685B6803F40033002B03D0BA6923
:100D04003B691343BB61194ABB695360174B1B68AA
:100D1400BB613B69DB43BA691340BB613B685B68F9
:100D240003F48033002B03D0BA693B691343BB61DE
:100D34000E4ABB691360FB690133FB61FB690F2B2E
:100D44007FF6A2AE00BF00BF2437BD4680BC70470B
:100D54000038024000380140000002400004024014
:100D640000080240000C024000100240003C014018
:100D740080B483B000AF78600B467B8013467B70F1
:100D84007B78002B03D07A887B689A6103E07B88A8
:100D94001A047B689A6100BF0C37BD4680BC70475B
:100DA40080B485B000AF78600B467B807B685B695C
:100DB400FB607A88FB6813401A04FB68D9437B887C
:100DC4000B401A437B689A6100BF1437BD4680BC50
:100DD4007047000080B586B000AF78607B68002B58
:100DE40001D1012367E27B681B6803F00103002B38
:100DF40075D0884B9B6803F00C03042B0CD0854BF7
:100E04009B6803F00C03082B12D1824B5B6803F43C
:100E14008003B3F5800F0BD17E4B1B6803F40033C2
:100E2400002B5BD07B685B68002B57D1012342E227
:100E34007B685B68B3F5803F06D1764B1B68754AC7
:100E440043F4803313601DE07B685B68B3F5A02F27
:100E54000CD1704B1B686F4A43F4802313606D4BB5
:100E64001B686C4A43F4803313600BE0694B1B68C6
:100E7400684A23F480331360664B1B68654A23F485
:100E8400802313607B685B68002B13D000F06CFF39
:100E9400386108E000F068FF02463B69D31A642B0E
:100EA40001D9032307E25B4B1B6803F40033002BD7
:100EB400F0D014E000F058FF386108E000F054FF6F
:100EC40002463B69D31A642B01D90323F3E1514B46
:100ED4001B6803F40033002BF0D100E000BF7B68F3
:100EE4001B6803F00203002B63D04A4B9B6803F09A
:100EF4000C03002B0BD0474B9B6803F00C03082B0F
:100F04001CD1444B5B6803F48003002B16D1414B86
:100F14001B6803F00203002B05D07B68DB68012B00
:100F240001D00123C7E13B4B1B6823F0F8027B6827
:100F34001B69DB00374913430B603AE07B68DB68CD
:100F4400002B20D0344B01221A6000F00DFF3861D1
:100F540008E000F009FF02463B69D31A022B01D9CD
:100F64000323A8E12B4B1B6803F00203002BF0D0F2
:100F7400284B1B6823F0F8027B681B69DB002549BA
:100F840013430B6015E0244B00221A6000F0ECFEC2
:100F9400386108E000F0E8FE02463B69D31A022BF0
:100FA40001D9032387E11B4B1B6803F00203002BC9
:100FB400F0D17B681B6803F00803002B36D07B68F4
:100FC4005B69002B16D0154B01221A6000F0CCFE91
:100FD400386108E000F0C8FE02463B69D31A022BD0
:100FE40001D9032367E10B4B5B6F03F00203002B72
:100FF400F0D01BE0094B00221A6000F0B5FE386106
:101004000EE000F0B1FE02463B69D31A022B07D969
:10101400032350E10038024000004742800E47425B
:10102400884B5B6F03F00203002BEAD17B681B68DB
:1010340003F00403002B00F097800023FB75814B21
:101044001B6C03F08053002B0FD10023BB607D4B3E
:101054001B6C7C4A43F0805313647A4B1B6C03F083
:101064008053BB60BB680123FB75774B1B6803F49B
:101074008073002B18D1744B1B68734A43F480733C
:10108400136000F071FE386108E000F06DFE024666
:101094003B69D31A022B01D903230CE16A4B1B6869
:1010A40003F48073002BF0D07B689B68012B06D17E
:1010B400644B1B6F634A43F0010313671CE07B68B6
:1010C4009B68052B0CD15F4B1B6F5E4A43F00403F6
:1010D40013675C4B1B6F5B4A43F0010313670BE020
:1010E400584B1B6F574A23F001031367554B1B6F73
:1010F400544A23F0040313677B689B68002B15D0C4
:1011040000F032FE38610AE000F02EFE02463B6930
:10111400D31A41F28832934201D90323CBE0494BDD
:101124001B6F03F00203002BEED014E000F01CFE52
:1011340038610AE000F018FE02463B69D31A41F216
:101144008832934201D90323B5E03E4B1B6F03F071
:101154000203002BEED1FB7D012B05D1394B1B6C17
:10116400384A23F0805313647B689B69002B00F09A
:10117400A180344B9B6803F00C03082B5CD07B6884
:101184009B69022B41D1314B00221A6000F0ECFD27
:10119400386108E000F0E8FD02463B69D31A022BEF
:1011A40001D9032387E0274B1B6803F00073002B4E
:1011B400F0D17B68DA697B681B6A1A437B685B6AD7
:1011C4009B011A437B689B6A5B08013B1B041A431F
:1011D4007B68DB6A1B061B4913434B601B4B0122D4
:1011E4001A6000F0C1FD386108E000F0BDFD024660
:1011F4003B69D31A022B01D903235CE0114B1B6812
:1012040003F00073002BF0D054E0104B00221A605E
:1012140000F0AAFD386108E000F0A6FD02463B6933
:10122400D31A022B01D9032345E0064B1B6803F0B4
:101234000073002BF0D13DE07B689B69012B07D143
:10124400012338E00038024000700040600047424B
:101254001B4B5B68FB607B689B69012B28D0FB6898
:1012640003F480027B68DB699A4221D1FB6803F0B6
:101274003F027B681B6A9A421AD1FA6847F6C07328
:1012840013407A68526A9201934211D1FB6803F4C5
:1012940040327B689B6A5B08013B1B049A4207D17E
:1012A400FB6803F070627B68DB6A1B069A4201D01C
:1012B400012300E0002318461837BD4680BD00BF57
:1012C4000038024080B584B000AF786039607B6834
:1012D400002B01D10123CCE0684B1B6803F007030A
:1012E4003A689A420CD9654B3A68D2B21A70634B89
:1012F4001B6803F007033A689A4201D00123B8E05F
:101304007B681B6803F00203002B20D07B681B68FA
:1013140003F00403002B05D0594B9B68584A43F44F
:10132400E05393607B681B6803F00803002B05D02F
:10133400534B9B68524A43F460439360504B9B6801
:1013440023F0F0027B689B684D4913438B607B68F4
:101354001B6803F00103002B44D07B685B68012BFE
:1013640007D1474B1B6803F40033002B19D1012329
:101374007FE07B685B68022B03D07B685B68032B90
:1013840007D13F4B1B6803F00073002B09D10123E5
:101394006FE03B4B1B6803F00203002B01D10123D8
:1013A40067E0374B9B6823F003027B685B68344932
:1013B40013438B6000F0D8FCF8600AE000F0D4FC22
:1013C4000246FB68D31A41F28832934201D90323BF
:1013D4004FE02B4B9B6803F00C027B685B689B001F
:1013E4009A42EBD1254B1B6803F007033A689A42F3
:1013F4000CD2224B3A68D2B21A70204B1B6803F00D
:1014040007033A689A4201D0012332E07B681B68E3
:1014140003F00403002B08D0194B9B6823F4E0521B
:101424007B68DB68164913438B607B681B6803F099
:101434000803002B09D0124B9B6823F460427B689D
:101444001B69DB000E4913438B6000F021F8024650
:101454000B4B9B681B0903F00F030A49CB5C22FA70
:1014640003F3094A1360094B1B68184600F03AFC61
:10147400002318461037BD4680BD00BF003C024023
:1014840000380240381E000800000020040000203C
:101494002DE9B04F94B000AF00237B640023FB64BC
:1014A40000233B640023BB647C4B9B6803F00C0368
:1014B400082B0DD0082B00F2E780002B02D0042B60
:1014C40003D0E1E0764BBB64E1E0764BBB64DEE045
:1014D400724B5B6803F03F037B64704B5B6803F4FF
:1014E4008003002B65D06D4B5B689B090022BB63B6
:1014F400FA63BB6BC3F308033B6300237B63D7E945
:101504000C4522462B464FF000004FF000015901D4
:1015140041EAD261500102460B462146511A396113
:10152400294663EB01037B614FF000024FF0000397
:10153400D7E904AB59468B01514643EA91635146BE
:101544008A01D446B2EB0C08594663EB01094FF00B
:1015540000024FF000034FEAC90343EA58734FEA0D
:10156400C80290469946234618EB0303BB602B46FA
:1015740049EB0303FB604FF000024FF00003D7E98F
:10158400024529464B0220462946044643EAD453E1
:1015940001464A02104619467B6C0022BB62FA627D
:1015A400D7E90A23FEF714FE02460B461346FB64F2
:1015B4005CE03A4B5B689B09002218461146C0F375
:1015C40008033B6200237B62D7E9088942464B4605
:1015D4004FF000004FF00001590141EAD26150017F
:1015E40002460B46C446B2EB0C0A404649468C46BA
:1015F40063EB0C0B4FF000024FF000034FEA8B1328
:1016040043EA9A634FEA8A12B2EB0A0463EB0B05CE
:101614004FF000024FF00003EB0043EA5473E20082
:1016240014461D460346E3183B600B4645EB030393
:101634007B604FF000024FF00003D7E900452946D4
:101644008B0220462946044643EA945301468A0203
:10165400104619467B6C0022BB61FA61D7E9062368
:10166400FEF7B6FD02460B461346FB640B4B5B6864
:101674001B0C03F0030301335B003B64FA6C3B6C0B
:10168400B2FBF3F3BB6402E0054BBB6400BFBB6C6D
:1016940018465037BD46BDE8B08F00BF0038024041
:1016A4000024F40000127A0080B400AF024B1B68DF
:1016B4001846BD4680BC70470000002080B500AFCE
:1016C400FFF7F2FF0246054B9B689B0A03F00703F2
:1016D4000349CB5C22FA03F3184680BD003802406C
:1016E400481E000880B500AFFFF7DEFF0246054B39
:1016F4009B685B0B03F007030349CB5C22FA03F3FB
:10170400184680BD00380240481E000880B582B0EB
:1017140000AF78607B68002B01D101233FE07B6838
:1017240093F83D30DBB2002B06D17B68002283F8AE
:101734003C207868FFF744F87B68242283F83D2036
:101744007B681B68DA687B681B6822F40052DA60E5
:10175400786800F029F87B681B681A697B681B6845
:1017640022F490421A617B681B685A697B681B6883
:1017740022F02A025A617B681B68DA687B681B685E
:1017840042F40052DA607B6800221A647B682022EB
:1017940083F83D207B68202283F83E2000231846EE
:1017A4000837BD4680BD00002DE9B04FC0B000AF82
:1017B400C7F8F400D7F8F4301B681B6923F44050D1
:1017C400D7F8F430D968D7F8F4301A6840EA01033E
:1017D4001361D7F8F4309A68D7F8F4301B691A43C8
:1017E400D7F8F4305B691A43D7F8F430DB69134354
:1017F400C7F8F830D7F8F4301B68DB6823F41641D7
:1018040021F00C01D7F8F4301A68D7F8F8300B43FC
:10181400D360D7F8F4301B685B6923F44070D7F8C1
:10182400F4309969D7F8F4301A6840EA0103536137
:10183400D7F8F4301A68914B9A4205D0D7F8F430AF
:101844001A688F4B9A4204D1FFF74CFFC7F8FC008B
:1018540003E0FFF733FFC7F8FC00D7F8F430DB6987
:10186400B3F5004F40F01081D7F8FC300022C7F8E0
:10187400E830C7F8EC20D7E93A4522462B469118C0
:10188400B9655B41FB65D7E9162320462946044622
:1018940012EB04080C4643EB04094FF000024FF02E
:1018A40000034FEAC90343EA58734FEAC80290465B
:1018B4009946034618EB0303C7F8E0300B4649EB9F
:1018C4000303C7F8E430D7F8F4305B680022C7F8A4
:1018D400D830C7F8DC20D7E936120B46DB183B6555
:1018E400134642EB03037B65D7E91423D7E9380198
:1018F400FEF76EFC02460B46624BA3FB02235B0918
:101904001C01D7F8FC300022C7F8D030C7F8D42027
:10191400D7E9348942464B469118B9645B41FB646C
:10192400D7E91223454612EB050A404649460D46BF
:1019340043EB050B4FF000024FF000034FEACB03DB
:1019440043EA5A734FEACA0292469B4603461AEB8D
:101954000303C7F8C8300B464BEB0303C7F8CC307E
:10196400D7F8F4305B680022C7F8C030C7F8C42049
:10197400D7E930120B46DB183B64134642EB0303F2
:101984007B64D7E91023D7E93201FEF721FC024634
:101994000B4611463B4BA3FB01235B09642202FB6C
:1019A40003F3CB1ADB0003F13202364BA3FB022311
:1019B4005B095B0003F4F8731C44D7F8FC30002285
:1019C400C7F8B830C7F8BC20D7E92E8942464B4641
:1019D4009118B9635B41FB63D7E90E234146511863
:1019E400396349464B417B634FF000024FF00003DB
:1019F400D7E90CAB5946CB00554643EA55735146DB
:101A0400CA0010461946034642469B18C7F8B03030
:101A14004B460A4642EB0303C7F8B430D7F8F43018
:101A24005B680022C7F8A830C7F8AC20D7E92A12AF
:101A34000B46DB18BB62134642EB0303FB62D7E998
:101A44000A23D7E92C01FEF7C3FB02460B460D4BD4
:101A5400A3FB02135B09642101FB03F3D31ADB002C
:101A64003233084AA2FB03235B0903F00702D7F8C9
:101A7400F4301B6822449A6009E100BF0010014061
:101A8400001401401F85EB51D7F8FC300022C7F841
:101A9400A030C7F8A420D7E9288942464B469118BC
:101AA40039625B417B62D7E9082341465418CC462E
:101AB40043EB0C054FF000024FF00003EB0043EA48
:101AC4005473E20014461D46404649460346E31853
:101AD400C7F898300B4645EB0303C7F89C30D7F89A
:101AE400F4305B680022C7F89030C7F894204FF0B8
:101AF40000024FF00003D7E9244529468B00204615
:101B04002946044643EA947301468A00D7E926012C
:101B1400FEF75EFB02460B46604BA3FB02235B0908
:101B24001C01D7F8FC300022C7F88830C7F88C2095
:101B3400D7E9228942464B469118B9615B41FB6162
:101B4400D7E9062341465118396149464B417B6127
:101B54004FF000024FF00003D7E904AB5946CB0025
:101B6400554643EA55735146CA0010461946034682
:101B740042469B18C7F880304B460A4642EB0303A3
:101B8400C7F88430D7F8F4305B680022BB67FA6783
:101B94004FF000024FF00003D7E91E8949468B003D
:101BA400454643EA957341468A00D7E92001FEF78A
:101BB4000FFB02460B46394BA3FB02135B0964215E
:101BC40001FB03F3D31A1B013233344AA2FB032370
:101BD4005B0903F0F0031C44D7F8FC3000223B6798
:101BE4007A67D7E91C8942464B469118B9605B4134
:101BF400FB60D7E9022341465118396049464B41FD
:101C04007B604FF000024FF00003D7E900AB594668
:101C1400CB00554643EA55735146CA00104619464F
:101C2400034642469B18BB664B460A4642EB0303F7
:101C3400FB66D7F8F4305B6800223B667A664FF0A7
:101C440000024FF00003D7E9188949468B00454646
:101C540043EA957341468A00D7E91A01FEF7B8FAB8
:101C640002460B460D4BA3FB02135B09642101FBE7
:101C740003F3D31A1B013233084AA2FB03235B0983
:101C840003F00F02D7F8F4301B6822449A6000BFB7
:101C940007F58077BD46BDE8B08F00BF1F85EB51C7
:101CA40080B500AF0E4B1B680D4A43F400731360FC
:101CB4000B4B1B680A4A43F480631360084B1B6890
:101CC400074A43F4807313600320FEF79BFE002051
:101CD40000F008F8FEF7F4FC0023184680BD00BFAE
:101CE400003C024080B582B000AF7860124B1A68A5
:101CF400124B1B7819464FF47A73B3FBF1F3B2FB22
:101D0400F3F31846FEF7A5FE0346002B01D001238A
:101D14000EE07B680F2B0AD8002279684FF0FF3061
:101D2400FEF77BFE064A7B681360002300E0012374
:101D340018460837BD4680BD00000020080000207A
:101D44000400002080B400AF054B1B781A46054BF5
:101D54001B681344034A136000BFBD4680BC704730
:101D6400080000206C00002080B400AF024B1B6808
:101D74001846BD4680BC70476C00002080B584B016
:101D840000AF7860FFF7F0FFB8607B68FB60FB682A
:101D9400B3F1FF3F05D00A4B1B781A46FB68134486
:101DA400FB6000BFFFF7E0FF0246BB68D31AFA6886
:101DB4009A42F7D800BF00BF1037BD4680BD00BFB0
:101DC4000800002070B50D4D0D4C641BA4100026B6
:101DD400A64209D10B4D0C4C00F020F8641BA41052
:101DE4000026A64205D170BD55F8043B984701363C
:101DF400EEE755F8043B98470136F2E7581E000811
:101E0400581E0008581E00085C1E000802440346C1
:101E1400934200D1704703F8011BF9E7F8B500BFFE
:101E2400F8BC08BC9E467047F8B500BFF8BC08BCB7
:041E34009E4670470F
:101E38000000000000000000010203040607080972
:081E4800000000000102030488
:081E5000B4E3FF7F0100000074
:041E5800B9010008C4
:041E5C0095010008E4
:0C1E60000024F40010000000010000004D
:040000050800085592
:00000001FF
